:020000040800F2
:100000008006002089010008B10500087905000874
:100010007D050008430200080F0E000800000000E4
:10002000000000000000000000000000DD0A0008E1
:10003000210400080000000025060008C90B000884
:10004000A3010008A3010008A3010008A301000800
:10005000A3010008A3010008A3010008A3010008F0
:10006000A3010008A3010008A3010008A3010008E0
:10007000A3010008A3010008A3010008A3010008D0
:10008000A3010008A3010008A3010008A3010008C0
:10009000A3010008A3010008A3010008A3010008B0
:1000A000A3010008A3010008A3010008A3010008A0
:1000B0002D0C0008A3010008A3010008A3010008FB
:1000C000A3010008A3010008A3010008A301000880
:1000D000A3010008A3010008A3010008A301000870
:1000E000A3010008A3010008A301000800F002F822
:1000F00000F03AF80AA090E8000C82448344AAF188
:100100000107DA4501D100F02FF8AFF2090EBAE885
:100110000F0013F0010F18BFFB1A43F0010318473B
:10012000D00D0000F00D0000103A24BF78C878C14F
:10013000FAD8520724BF30C830C144BF04680C60ED
:10014000704700000023002400250026103A28BF35
:1001500078C1FBD8520728BF30C148BF0B60704739
:100160001FB51FBD10B510BD00F031F81146FFF7E7
:10017000F7FF00F04FFE00F04FF803B4FFF7F2FF77
:1001800003BC00F057F800000948804709480047C1
:10019000FEE7FEE7FEE7FEE7FEE7FEE7FEE7FEE737
:1001A000FEE7FEE704480549054A064B7047000094
:1001B000CD0B0008ED000008800000208006002024
:1001C000800200208002002070477047704775460B
:1001D00000F02CF8AE4605006946534620F00700B3
:1001E000854618B020B5FFF7DDFFBDE820404FF091
:1001F00000064FF000074FF000084FF0000B21F011
:100200000701AC46ACE8C009ACE8C009ACE8C009DD
:10021000ACE8C0098D46704710B50446AFF30080C6
:100220002046BDE81040FFF7A8BF00000048704717
:100230001C00002001491820ABBEFEE7260002008A
:10024000704700BFFEE700000F2002490870024916
:100250000870704702000020030000200F200349AF
:100260000870052002490870704700000200002055
:10027000030000200520034908700F200249087080
:10028000704700000200002003000020F620034910
:1002900008700A2002490870704700000200002020
:1002A0000300002010B54F4890F9000000281CDD25
:1002B0004D4800884B4991F9001088420ADA4FF402
:1002C00000614A4800F056F94FF48061474800F059
:1002D0004FF937E04FF40061444800F049F94FF41A
:1002E0008061424800F044F92CE03E4890F900005B
:1002F00000281DDA3B4890F9000040423A4909883D
:1003000088420ADD4FF40061384800F031F94FF4BB
:100310008061364800F02EF914E04FF40061334854
:1003200000F026F94FF48061304800F021F909E02F
:100330004FF400612D4800F01BF94FF480612B4809
:1003400000F016F92A4890F9000000281CDD264824
:100350000088274991F9001088420ADA4FF4805149
:10036000224800F007F94FF40051204800F000F94E
:1003700037E04FF480511D4800F0FAF84FF4005177
:100380001A4800F0F5F82CE0194890F90000002810
:100390001DDA174890F90000404213490988884245
:1003A0000ADD4FF48051114800F0E2F84FF400519B
:1003B0000E4800F0DFF814E04FF480510B4800F0D5
:1003C000D7F84FF40051094800F0D2F809E04FF493
:1003D0008051064800F0CCF84FF40051034800F07B
:1003E000C7F810BD0200002000000020000C0140F2
:1003F000030000200A2003490870F6200249087013
:100400007047000002000020030000200020024985
:1004100008700249087070470200002003000020A5
:100420007047000008B54FF40050ADF800001020F0
:100430008DF8030002208DF802006946014800F0A3
:1004400003F808BD001001402DE9F04102460025E7
:100450000026002000230024002791F803C00CF0A0
:100460000F0591F803C00CF0100CBCF1000F03D085
:1004700091F802C04CEA050591F800C0BCF1000FEC
:1004800031D0146800202BE04FF0010C0CFA00F37F
:10049000B1F800C00CEA03069E4220D183004FF061
:1004A0000F0C0CFA03F7BC4305FA03FC4CEA0404F6
:1004B00091F803C0BCF1280F06D14FF0010C0CFAE3
:1004C00000FCC2F814C00AE091F803C0BCF1480F68
:1004D00005D14FF0010C0CFA00FCC2F810C0401C12
:1004E0000828D1D31460B1F800C0BCF1FF0F34DD8F
:1004F000546800202EE000F1080C4FF0010808FAC3
:100500000CF3B1F800C00CEA03069E4221D183002F
:100510004FF00F0C0CFA03F7BC4305FA03FC4CEA4E
:10052000040491F803C0BCF1280F05D100F1080CB8
:1005300008FA0CF8C2F8148091F803C0BCF1480F17
:1005400007D100F1080C4FF0010808FA0CF8C2F8C6
:100550001080401C0828CED35460BDE8F0810246CC
:10056000002093680B400BB1012000E00020704791
:10057000416170470161704700BFFEE700BFFEE7C1
:1005800008B54FF47050ADF8000002208DF802005D
:1005900010208DF8030069460148FFF755FF08BD9C
:1005A000000C014010B5FFF7EBFFFFF72FFF10BD68
:1005B0007047000070B5002100230F22C47804B3F7
:1005C000154C246804F4E064C4F5E064210AC1F128
:1005D0000403CA40447804FA03F1847814402143A8
:1005E00009010E4C0678A155047804F01F0501247A
:1005F000AC4005786D11AD0005F1E025C5F800416E
:1006000009E0047804F01F050124AC40044D06788D
:10061000761145F8264070BD0CED00E000E400E0E6
:1006200080E100E07047000029B1064AD269024328
:10063000044BDA6104E0034AD2698243014BDA6178
:10064000704700000010024029B1064A9269024337
:10065000044B9A6104E0034A92698243014B9A6118
:10066000704700000010024010B500F035F84FF45C
:10067000803000F089F800F0E5F80446012C1ED126
:10068000002000F075F8002000F0B0F8A00200F0A3
:10069000A1F84FF4E011200400F0BAF8012000F0B6
:1006A000B1F800BF392000F03DF80028FAD0022050
:1006B00000F0BCF800BF00F053F80828FBD101217E
:1006C0000820FFF7C1FF01211020FFF7BDFF012126
:1006D0000846FFF7A9FF10BD0F48006840F0010071
:1006E0000D490860084640680C4908400A494860BE
:1006F000084600680A49084007490860084600683B
:1007000020F4802008600846406820F4FE0048601D
:100710004FF41F0088607047001002400000FFF88F
:10072000FFFFF6FE10B501460022002300204A110B
:10073000012A02D1094C236806E0022A02D1074CA3
:10074000236A01E0054C636A01F01F020124944012
:100750001C400CB1012000E0002010BD0010024040
:100760000248406800F00C00704700000010024092
:1007700001460020034A506820F0F0000843506012
:1007800070470000001002401149096821F48031CF
:100790000F4A11601146096821F480211160B0F5FB
:1007A000803F03D0B0F5802F0ED106E008490968DC
:1007B00041F48031064A116007E00549096841F4B7
:1007C000A021034A116000E000BF00BF7047000095
:1007D0000010024001460020034A506820F4E06007
:1007E000084350607047000000100240014600209E
:1007F000034A506820F4605040EAC10050607047DE
:1008000000100240014908667047000000004242A3
:1008100002460020044B586820F47C1042EA010391
:100820001843014B586070470010024001460020F9
:10083000034A506820F003000843506070470000EE
:100840000010024038B5002000900024002500BFB1
:100850003120FFF767FF05460098401C0090009884
:10086000B0F5A06F01D0002DF2D03120FFF75AFF74
:1008700008B1012400E00024204638BD08B520203E
:10088000ADF8000048208DF8030002208DF802002A
:1008900069461D48FFF7D8FD4020ADF8000048200C
:1008A0008DF8030002208DF8020069461648FFF714
:1008B000CBFD8020ADF8000048208DF80300022019
:1008C0008DF8020069461048FFF7BEFD4FF48070B6
:1008D000ADF8000048208DF8030002208DF80200DA
:1008E00069460948FFF7B0FD4FF40070ADF800000D
:1008F00048208DF8030002208DF802006946024866
:10090000FFF7A2FD08BD0000000C01402DE9F047F3
:100910004FF400716348FFF722FE06464FF48071E2
:100920006048FFF71CFE054680215E48FFF717FE72
:10093000814640215B48FFF712FE074620215948B7
:10094000FFF70DFE04465848007801280BD1012F0F
:1009500008D1564800780028FAD153490870502031
:100960005349088093E053480078012808D1012DAD
:10097000F8D1514800780028F4D14E49087086E03B
:100980004E48007801280CD1012DEBD14A4800785F
:1009900000287CD14A480088002878D1474908704F
:1009A00075E0012E0CD147480088401C454908805D
:1009B000012C4DD144480088401C4349088047E041
:1009C000ACB942480078012811D1B9F1000F3FD1EC
:1009D0003D48008898BB00203A4908803A49088081
:1009E00043203B49087001202F49087030E034BB98
:1009F0002EBB3648007810BB36480078F8B9012F76
:100A000003D15820324908701DE0012D03D159202F
:100A10002F49087017E0B9F1000F11D144202C497B
:100A200008700120234908704FF0000803E008F126
:100A3000010000F0FF08B8F1FF0FF8DB03E007E06A
:100A400041202349087000201E4908801E49088063
:100A50001C48008800281ADD1A480088322816DA57
:100A6000AEB91348008890B94FF400511A48FFF707
:100A70007FFD002013490880134908803220104967
:100A8000088044201249087001200C4908700F4862
:100A9000047006480770084805700E480670BDE8E7
:100AA000F0870000000C0140160000201300002019
:100AB0001000002017000020140000201800002063
:100AC0000E0000200A0000200C0000201200002070
:100AD000060000201500002000100140704710B5EE
:100AE00000F002F810BD00000CB50020019000904D
:100AF0003348006840F480303149086000BF304816
:100B0000006800F4003000900198401C01900098AB
:100B100018B90198B0F5A06FF1D12948006800F428
:100B2000003010B10120009001E0002000900098FA
:100B3000012843D12348006840F010002149086093
:100B40000846006820F0030008600846006840F08E
:100B5000020008601A484068194948600846406821
:100B600048600846406840F4806048600846406835
:100B700020F47C1048600846406840F4E810486063
:100B80000846006840F08070086000BF0C480068AC
:100B900000F000700028F9D00948406820F00300F8
:100BA000074948600846406840F00200486000BFBE
:100BB0000348406800F00C000828F9D10CBD000083
:100BC00000100240002002407047000010B513489A
:100BD000006840F00100114908600846406810496B
:100BE00008400E494860084600680E4908400B4915
:100BF00008600846006820F48020086008464068C5
:100C000020F4FE0048604FF41F008860FFF767FF84
:100C10004FF000600449086010BD00000010024061
:100C20000000FFF8FFFFF6FE08ED00E010B501211F
:100C3000880700F06BF8012821D10121800700F01E
:100C400056F80F480078401C0D4908700846007897
:100C50000A2814DD002008700A480088401C094951
:100C6000088009480078401C07490870054800883A
:100C7000322802DD002003490880FFF713FB10BD76
:100C80000500002000000020040000201FB51C20EB
:100C90008DF8000001208DF803008DF80100002080
:100CA0008DF802006846FFF785FC01A800F09AF86D
:100CB0004720ADF804000020ADF806006320ADF831
:100CC00008000020ADF80A0001A94FF0804000F0B4
:100CD00037F80121880700F08EF80121880700F01D
:100CE00009F801221146900700F021F81FBDCA4300
:100CF0000282704721B1028842F00102028004E0C2
:100D000002884FF6FE731A400280704730B50246E3
:100D1000002000230024158A05EA0103958905EACD
:100D2000010413B10CB1012000E0002030BD1AB164
:100D300083890B43838102E083898B4383817047DE
:100D4000002202881D4B98420ED01D4B98420BD0BA
:100D5000B0F1804F08D01B4B984205D01A4B9842F7
:100D600002D01A4B984204D14FF68F731A404B8829
:100D70001A43174B984207D0164B984204D04FF6AF
:100D8000FF431A40CB881A4302808B8883850B88E7
:100D900003850A4B98420BD0094B984208D00E4B62
:100DA000984205D00D4B984202D00D4B984201D18C
:100DB0000B7A03860123838270470000002C0140D8
:100DC000003401400004004000080040000C0040D6
:100DD0000010004000140040004001400044014069
:100DE000004801404FF6FF71818000210180C180E1
:100DF00041800172704721B1028842F004020280F2
:100E000004E002884FF6FB731A400280704700BF6F
:100E1000FEE70000FFF728FCFFF704FBFFF72EFDBD
:100E2000FFF734FFFFF7BEFB002408E0002501E0D8
:100E3000681C85B2B5F57A7FFADB601C84B242F299
:100E400010708442F2DB48E024480078052844DB37
:100E500000202249087022480088002804DD20482C
:100E60000088401E1E4908801E480088002804DDB6
:100E70001C480088401E1B490880FFF747FD1A48A0
:100E800090F90000194991F90010884225D01748BF
:100E900090F9000014490870144890F900004428A3
:100EA00016D004DC412807D0432814D10DE058287F
:100EB00005D059280FD105E0FFF7C6F90CE0FFF780
:100EC000CDF909E0FFF7D6F906E0FFF7DFF903E017
:100ED000FFF790FA00E000BF00BFB5E70400002074
:100EE0000E00002010000020070000200600002057
:100EF000100F0008000000201C000000280100085E
:100F00002C0F00081C0000206406000044010008AB
:100F1000000000000000494900000000000000003F
:0C0F2000000000000000000000000000C5
:04000005080000ED02
:00000001FF
